:100000000C9453000C947B000C947B000C947B00AC
:100010000C947B000C947B000C947B000C947B0074
:100020000C947B000C947B000C947B000C94DA0500
:100030000C947B000C947B000C947B000C947B0054
:100040000C942A100C947B000C94950D0C94C70D05
:100050000C947B000C947B000C947B000C947B0034
:100060000C947B000C947B004E414E494E495459F0
:10007000494E46CDCCCC3D0AD7233C17B7D1387773
:10008000CC2B329595E6241FB14F0A000020410089
:1000900000C84200401C4620BCBE4CCA1B0E5AAED3
:1000A000C59D7400F70D11241FBECFEFD8E0DEBF51
:1000B000CDBF11E0A0E0B1E0EEE8F6E202C00590AD
:1000C0000D92A23AB107D9F722E0A2EAB1E001C04D
:1000D0001D92A43FB207E1F710E0C3E5D0E004C0F1
:1000E0002197FE010E943811C235D107C9F70E943D
:1000F000250E0C9445130C94000060E071E08CE434
:1001000092E00C94810E20E030E040E752E40E943F
:100110009E0A20E030E040EA53E40E94FD0B9B0180
:10012000AC0160E070E08AE794E40E949E0A20E05F
:1001300030E040E05FE30E94FD0B20E030E04AE762
:1001400054E40E94FD0B08956F927F928F92AF92BC
:10015000BF92CF92DF92EF92FF920F931F93CF93B4
:10016000DF93CDB7DEB7E091D001F091D101E63059
:10017000F1052CF01092D1011092D00105C03196FA
:10018000F093D101E093D001F8946090D001709089
:10019000D101F301EE0FFF1FEE0FFF1FE651FE4FDF
:1001A0006083718382839383F301EE0FFF1FEE0F51
:1001B000FF1FEE5FFD4F2083318342835383F301A2
:1001C000EE0FFF1FEE0FFF1FE65EFD4FE082F18294
:1001D00002831383F301EE0FFF1FEE0FFF1FEE5C90
:1001E000FD4FA082B182C282D382682D70E080E090
:1001F00090E00E94460B8301000F111F000F111F9A
:10020000F801E65BFD4F608371838283938378946A
:10021000DF91CF911F910F91FF90EF90DF90CF90E2
:10022000BF90AF908F907F906F9008954F925F92A4
:100230006F927F928F92AF92BF92CF92DF92EF92A6
:10024000FF920F931F93CF93DF93CDB7DEB728971D
:100250000FB6F894DEBF0FBECDBF2B013C01298342
:100260003A834B835C83ED82FE820F831887C6013D
:10027000B5010E9483005B016C0180913602909170
:100280003702019781F1A3019201609138027091C8
:10029000390280913A0290913B020E942C0A2B0174
:1002A0003C0129813A814B815C8160913C027091D3
:1002B0003D0280913E0290913F020E942C0A698388
:1002C0007A838B839C83A80197016091400270918F
:1002D000410280914202909143020E942C0A6D8358
:1002E0007E838F83988720E030E040EA53E4C301A7
:1002F000B2010E94FD0B2B013C0120E030E0A9017E
:100300000E94F80B181624F077FA709477F870941E
:1003100020E030E040EA53E469817A818B819C815E
:100320000E94FD0B69837A838B839C8320E030E0FD
:10033000A9010E94F80B18164CF089819A81AB81B3
:10034000BC81B05889839A83AB83BC8320E030E0C2
:1003500040EA53E46D817E818F8198850E94FD0B78
:100360006D837E838F83988720E030E0A9010E940F
:10037000F80B18164CF08D819E81AF81B885B0586E
:100380008D839E83AF83B88729813A814B815C81BD
:10039000C301B2010E94F80B87FD0AC02D813E8186
:1003A0004F815885C301B2010E94F80B87FF2FC00F
:1003B000A301920169817A818B819C810E94F80B53
:1003C00087FD0CC02D813E814F81588569817A81DE
:1003D0008B819C810E94F80B87FF1CC0A3019201B6
:1003E0006D817E818F8198850E94F80B87FD14C0F6
:1003F00029813A814B815C816D817E818F819885D5
:100400000E94F80B87FD08C093E0892E05C0882460
:10041000839402C082E0882EED80FE800F811885D3
:1004200029813A814B815C81C301B2010E94A40001
:1004300028960FB6F894DEBF0FBECDBFDF91CF91E7
:100440001F910F91FF90EF90DF90CF90BF90AF90F2
:100450008F907F906F905F904F9008952F923F9272
:100460004F925F926F927F928F929F92AF92BF92C4
:10047000CF92DF92EF92FF920F931F93CF93DF9370
:10048000CDB7DEB7C456D1090FB6F894DEBF0FBEA4
:10049000CDBF8C011B0168E570E00E9460115C011A
:1004A00001960E943E1129966CAF7DAF8EAF9FAF33
:1004B000299769E570E0C8010E9460116C010196FE
:1004C0000E943E1125966CAF7DAF8EAF9FAF2597F2
:1004D0006AE570E0C8010E9460117C0101960E94EB
:1004E0003E112B013C0166E470E0C8010E946011DE
:1004F0004C0101960E943E1161966CAF7DAF8EAFAC
:100500009FAF6197892871F48091440290914502D0
:10051000A0914602B091470261968CAF9DAFAEAFFD
:10052000BFAF6197AB28C9F480913802909139022E
:10053000A0913A02B0913B0229968CAF9DAFAEAF2D
:10054000BFAF299780E090E0A0E8BFE36D968CAF45
:100550009DAFAEAFBFAF6D9706C06D961CAE1DAE22
:100560001EAE1FAE6D97CD28C9F480913C029091CC
:100570003D02A0913E02B0913F0225968CAF9DAF07
:10058000AEAFBFAF259780E090E0A0E8BFE3A596AF
:100590008CAF9DAFAEAFBFAFA59706C0A5961CAE02
:1005A0001DAE1EAE1FAEA597EF2899F440904002F5
:1005B00050904102609042027090430280E090E0CF
:1005C000A0E8BFE3A1968CAF9DAFAEAFBFAFA19740
:1005D00006C0A1961CAE1DAE1EAE1FAEA1972996F9
:1005E0002CAD3DAD4EAD5FAD299760913802709155
:1005F000390280913A0290913B020E942C0A2D967A
:100600006CAF7DAF8EAF9FAF2D9725962CAD3DADD6
:100610004EAD5FAD259760913C0270913D02809197
:100620003E0290913F020E942C0A4B015C01A30103
:10063000920160914002709141028091420290913A
:1006400043020E942C0A6B017C0120E030E040EA6A
:1006500053E42D966CAD7DAD8EAD9FAD2D970E9470
:10066000FD0B2D966CAF7DAF8EAF9FAF2D9720E029
:1006700030E0A9010E94F80B18166CF02D968CAD95
:100680009DADAEADBFAD2D97B0582D968CAF9DAF43
:10069000AEAFBFAF2D9720E030E040EA53E4C50194
:1006A000B4010E94FD0B65966CAF7DAF8EAF9FAF1E
:1006B000659720E030E0A9010E94F80B18166CF055
:1006C00065968CAD9DADAEADBFAD6597B0586596E6
:1006D0008CAF9DAFAEAFBFAF659720E030E040EA92
:1006E00053E4C701B6010E94FD0B69966CAF7DAF64
:1006F0008EAF9FAF699720E030E0A9010E94F80B10
:1007000018166CF069968CAD9DADAEADBFAD699716
:10071000B05869968CAF9DAFAEAFBFAF6997A12CB3
:10072000B12C88248394912CF801EA0DFB1DA214AE
:10073000B3040CF0A7C1C50101962191273421F023
:100740002D3409F401C19CC1F801E80FF91F808123
:100750008983F5013296E00FF11F93E0A90EB11CD9
:1007600080818A831B82CE0101960E9442118130D2
:10077000910529F08B35910589F0892BA9F66196B1
:100780008CAD9DADAEADBFAD6197809348029093A7
:100790004902A0934A02B0934B02C6CF20E030E05A
:1007A00040E85FE36D966CAD7DAD8EAD9FAD6D970E
:1007B0000E94990A811106C029961CAE1DAE1EAE7C
:1007C0001FAE299720E030E040E85FE3A5966CADCE
:1007D0007DAD8EAD9FADA5970E94990A811106C08F
:1007E00025961CAE1DAE1EAE1FAE259720E030E054
:1007F00040E85FE3A1966CAD7DAD8EAD9FADA19756
:100800000E94990A811103C0412C512C320122E02F
:1008100030E06D964CAD5DAD6EAD7FAD6D978CE407
:1008200092E00E94181022E030E025964CAD5DADBC
:100830006EAD7FAD25978CE492E00E94181022E007
:1008400030E0B301A2018CE492E00E9418102091E4
:1008500038023091390240913A0250913B02299678
:100860006CAD7DAD8EAD9FAD29970E942D0A6B01B9
:100870007C01609338027093390280933A0290931E
:100880003B0225962CAD3DAD4EAD5FAD25976091F9
:100890003C0270913D0280913E0290913F020E9485
:1008A0002D0A60933C0270933D0280933E02909328
:1008B0003F02A30192016091400270914102809138
:1008C0004202909143020E942D0A6093400270936D
:1008D0004102809342029093430261968CAD9DAD9C
:1008E000AEADBFAD61978093480290934902A0934B
:1008F0004A02B0934B0222E030E0B701A6018CE43B
:1009000092E00E94181040913C0250913D0260918B
:100910003E0270913F0222E030E08CE492E00E94BF
:100920001810409140025091410260914202709132
:10093000430222E030E08CE492E00E941810909292
:10094000370280923602F0CEF801E80FF91F80815D
:100950008983F801EA0DFB1D82818A83F5013396B4
:10096000E00FF11F94E0A90EB11C80818B831C82E3
:10097000CE0101960E9442118730910509F4D4CE30
:1009800054F48330910509F460C0059709F06AC0FA
:100990006FE371E05CC08F30910569F1823791059A
:1009A00009F060C069E171E08CE492E00E94740E8D
:1009B000409138025091390260913A0270913B02A5
:1009C00022E030E08CE492E00E94161062E371E0D5
:1009D0008CE492E00E94740E40913C0250913D02E2
:1009E00060913E0270913F0222E030E08CE492E0A0
:1009F0000E94181099CE0E947D0010923802109229
:100A0000390210923A0210923B0210923C0210926C
:100A10003D0210923E0210923F021092400210924C
:100A200041021092420210924302412C512C320199
:100A300025964CAE5DAE6EAE7FAE259729964CAE38
:100A40005DAE6EAE7FAE29976FCE6CE371E08CE445
:100A500092E00E94810E60ED77E080E090E00E94DD
:100A6000991062CE63E471E08CE492E00E94740E0F
:100A7000BE016F5F7F4F8CE492E00E94810E54CEE6
:100A80005C0155CEA0904802B0904902C0904A0245
:100A9000D0904B026996ECACFDAC0EAD1FAD6997E2
:100AA00065962CAD3DAD4EAD5FAD65972D966CADA9
:100AB0007DAD8EAD9FAD2D970E94160180913602BF
:100AC00090913702892B21F529968CAD9DADAEAD65
:100AD000BFAD29978093380290933902A0933A02D0
:100AE000B0933B0225968CAD9DADAEADBFAD2597C5
:100AF00080933C0290933D02A0933E02B0933F024C
:100B0000409240025092410260924202709243022F
:100B100061968CAD9DADAEADBFAD61978093440243
:100B200090934502A0934602B0934702CC59DF4F01
:100B30000FB6F894DEBF0FBECDBFDF91CF911F91EE
:100B40000F91FF90EF90DF90CF90BF90AF909F906C
:100B50008F907F906F905F904F903F902F9008956F
:100B6000F89410928000E1E8F0E010821092850085
:100B70001092840084E690E090938900809388002E
:100B8000808185608083808188608083EFE6F0E0EB
:100B900080818260808378948FEF84B915B826E0D5
:100BA00040E052EC61E070E08CE492E00E94300D95
:100BB0000C947D001F920F920FB60F9211242F9369
:100BC0003F934F935F936F937F938F939F93AF93D5
:100BD000BF93EF93FF93CF93DF9300D000D0CDB7B7
:100BE000DEB78091320290913302A0913402B0912D
:100BF00035020196A11DB11D8093320290933302FC
:100C0000A0933402B09335026EE571E08CE492E07B
:100C10000E94810E6091BA017091BB018091BC016C
:100C20009091BD012091CA013091CB014091CC013E
:100C30005091CD0129833A834B835C830E94460BFC
:100C400029813A814B815C810E94F80B87FF3CC06F
:100C50006091B6017091B7018091B8019091B9018E
:100C60002091C6013091C7014091C8015091C9013E
:100C700029833A834B835C830E94460B29813A8106
:100C80004B815C810E94F80B87FF1EC06091B2010E
:100C90007091B3018091B4019091B5012091C2018E
:100CA0003091C3014091C4015091C50129833A8319
:100CB0004B835C830E94460B29813A814B815C8186
:100CC0000E94F80B87FD9FC02091CE013091CF018B
:100CD00088E1829FF001839FF00D1124EE52FE4FB8
:100CE00040815181628173814093CA015093CB014D
:100CF0006093CC017093CD012091CE013091CF0152
:100D0000829FF001839FF00D1124EE52FE4F44812B
:100D10005581668177814093C6015093C7016093E6
:100D2000C8017093C9012091CE013091CF01829FFB
:100D3000F001839FF00D1124EE52FE4F4085518546
:100D4000628573854093C2015093C3016093C401CF
:100D50007093C5012091CE013091CF01829FF001A7
:100D6000839FF00D1124EE52FE4F44855585668514
:100D700077854093BE015093BF016093C00170938B
:100D8000C1012091CE013091CF01829FF001839F5C
:100D9000F00D1124EE52FE4F60897189828993898A
:100DA0000E94100B7093B1016093B0011092B601D4
:100DB0001092B7011092B8011092B9011092BA01C5
:100DC0001092BB011092BC011092BD011092B201B1
:100DD0001092B3011092B4011092B5018091CE012E
:100DE0009091CF0106972CF01092CF011092CE0176
:100DF000AFC28091CE019091CF0101969093CF0127
:100E00008093CE01A5C28091A6019091A701A091E7
:100E1000A801B091A9010197A105B10509F098C2F7
:100E20008091B0019091B1018230910509F499C08F
:100E30008330910509F41DC1019709F089C28091A1
:100E4000BA019091BB01A091BC01B091BD01019686
:100E5000A11DB11D8093BA019093BB01A093BC0169
:100E6000B093BD016091AC017091AD012091C601BC
:100E70003091C7014091C8015091C901072E000C63
:100E8000880B990B29833A834B835C830E94480B20
:100E900029813A814B815C810E942C0A0E94100BAF
:100EA0007093AD016093AC016091AA017091AB01A8
:100EB0002091C2013091C3014091C4015091C501FC
:100EC000072E000C880B990B29833A834B835C8394
:100ED0000E94480B29813A814B815C810E942C0A37
:100EE0000E94100B7093AB016093AA0181E0809384
:100EF000A5018091AC019091AD011816190684F0FE
:100F00006091C6017091C7018091C8019091C9019B
:100F100020E030E0A9010E94F80B18160CF434C14F
:100F20008091AA019091AB0197FF10C06091C2011E
:100F30007091C3018091C4019091C50120E030E01F
:100F4000A9010E94F80B18160CF444C18091A50168
:100F50002091A4019091A301822B892B8093A2015F
:100F60000FC18091B6019091B701A091B801B091E5
:100F7000B9010196A11DB11D8093B6019093B701EF
:100F8000A093B801B093B9016091AE017091AF0127
:100F90002091CA013091CB014091CC015091CD01FB
:100FA000072E000C880B990B29833A834B835C83B3
:100FB0000E94480B29813A814B815C810E942C0A56
:100FC0000E94100B7093AF016093AE016091AA0173
:100FD0007091AB012091C2013091C3014091C401D5
:100FE0005091C501072E000C880B990B29833A8379
:100FF0004B835C830E94480B29813A814B815C8141
:101000000E942C0A0E94100B7093AB016093AA01FE
:1010100082E08093A4018091AE019091AF011816F7
:10102000190684F06091CA017091CB018091CC01C6
:101030009091CD0120E030E0A9010E94F80B181634
:101040000CF4EEC08091AA019091AB0197FF98C07B
:101050006091C2017091C3018091C4019091C5015A
:1010600020E030E0A9010E94F80B18160CF4FEC035
:1010700087C08091B2019091B301A091B401B09169
:10108000B5010196A11DB11D8093B2019093B301EA
:10109000A093B401B093B5016091AE017091AF011E
:1010A0002091CA013091CB014091CC015091CD01EA
:1010B000072E000C880B990B29833A834B835C83A2
:1010C0000E94480B29813A814B815C810E942C0A45
:1010D0000E94100B7093AF016093AE016091AC0160
:1010E0007091AD012091CA013091CB014091CC01AA
:1010F0005091CD01072E000C880B990B29833A8360
:101100004B835C830E94480B29813A814B815C812F
:101110000E942C0A0E94100B7093AD016093AC01E9
:1011200084E08093A3018091AE019091AF011816E5
:10113000190684F06091CA017091CB018091CC01B5
:101140009091CD0120E030E0A9010E94F80B181623
:101150000CF4B2C08091AC019091AD0197FF10C02A
:101160006091C2017091C3018091C4019091C50149
:1011700020E030E0A9010E94F80B18160CF4C2C060
:101180008091A20185B9E4C082E08093A4016091BE
:10119000AC017091AD012091CA013091CB01409119
:1011A000CC015091CD01072E000C880B990B29839F
:1011B0003A834B835C830E94480B29813A814B819F
:1011C0005C810E942D0A0E94100B7093AD01609308
:1011D000AC01A6CE84E08093A3016091AA01709136
:1011E000AB012091CA013091CB014091CC015091CB
:1011F000CD01072E000C880B990B29833A834B8372
:101200005C830E94480B29813A814B815C810E945A
:101210002D0A0E94100B7093AB016093AA0196CE29
:1012200081E08093A5016091AE017091AF012091A2
:10123000C6013091C7014091C8015091C901072EE4
:10124000000C880B990B29833A834B835C830E94A3
:10125000480B29813A814B815C810E942D0A0E94B2
:10126000100B7093AF016093AE01ECCE6091AA01B8
:101270007091AB012091C6013091C7014091C80126
:101280005091C901072E000C880B990B29833A83D2
:101290004B835C830E94480B29813A814B815C819E
:1012A0000E942D0A0E94100B7093AB016093AA015B
:1012B00084E08093A30164CF6091AE017091AF018F
:1012C0002091C2013091C3014091C4015091C501E8
:1012D000072E000C880B990B29833A834B835C8380
:1012E0000E94480B29813A814B815C810E942D0A22
:1012F0000E94100B7093AF016093AE0181E0809368
:10130000A50128CF6091AC017091AD012091C2017F
:101310003091C3014091C4015091C501072E000CCA
:10132000880B990B29833A834B835C830E94480B7B
:1013300029813A814B815C810E942D0A0E94100B09
:101340007093AD016093AC0182E08093A40118CF4B
:101350000F900F900F900F90DF91CF91FF91EF9131
:10136000BF91AF919F918F917F916F915F914F91BD
:101370003F912F910F900FBE0F901F901895CF9314
:10138000DF93CDB7DEB7D2500FB6F894DEBF0FBEF5
:10139000CDBF68EC70E080E090E00E949910E12CF5
:1013A000F12C00E010E08CE492E00E946A0C181628
:1013B0001906CCF78CE492E00E94840C8A3011F07C
:1013C0008D30C1F40115110561F0E1E0F0E0EC0FA2
:1013D000FD1FE00FF11F1082B801CE0101960E949F
:1013E0002E02F89462E671E08CE492E00E94810E95
:1013F0007894D5CFF11002C0EE2021F0893299F611
:10140000F12CD1CF813278F28F3269F28832F1F04B
:101410008B33F9F00F3F91E019073CF065E671E07E
:101420008CE492E00E94810EBECF98012F5F3F4F67
:101430009FE9980FE1E0F0E0EC0FFD1FE00FF11FD6
:101440009A3108F4805280838901ADCFFF24F39450
:10145000AACFEE24E394A7CF5058BB27AA270E9417
:10146000440A0C94BE0B0E94B00B38F00E94B70BDC
:1014700020F039F49F3F19F426F40C94AD0B0EF4D0
:10148000E095E7FB0C94A70BE92F0E94CF0B58F3D4
:10149000BA17620773078407950720F079F4A6F559
:1014A0000C94F10B0EF4E0950B2EBA2FA02D0B012E
:1014B000B90190010C01CA01A0011124FF27591B99
:1014C00099F0593F50F4503E68F11A16F040A22F9F
:1014D000232F342F4427585FF3CF46953795279510
:1014E000A795F0405395C9F77EF41F16BA0B620B0F
:1014F000730B840BBAF09150A1F0FF0FBB1F661F56
:10150000771F881FC2F70EC0BA0F621F731F841F98
:1015100048F4879577956795B795F7959E3F08F0BE
:10152000B0CF9395880F08F09927EE0F9795879580
:1015300008950E94830B08F481E008950E94B20A86
:101540000C94BE0B0E94B70B58F00E94B00B40F0F9
:1015500029F45F3F29F00C94A70B51110C94F20B66
:101560000C94AD0B0E94CF0B68F39923B1F3552374
:1015700091F3951B550BBB27AA27621773078407A6
:1015800038F09F5F5F4F220F331F441FAA1FA9F33C
:1015900035D00E2E3AF0E0E832D091505040E6952A
:1015A000001CCAF72BD0FE2F29D0660F771F881F8B
:1015B000BB1F261737074807AB07B0E809F0BB0B7E
:1015C000802DBF01FF2793585F4F3AF09E3F510592
:1015D00078F00C94A70B0C94F20B5F3FE4F3983E69
:1015E000D4F3869577956795B795F7959F5FC9F77B
:1015F000880F911D9695879597F90895E1E0660FFC
:10160000771F881FBB1F621773078407BA0720F074
:10161000621B730B840BBA0BEE1F88F7E0950895DD
:101620000E94170B6894B1110C94F20B08950E945C
:10163000D70B88F09F5798F0B92F9927B751B0F082
:10164000E1F0660F771F881F991F1AF0BA95C9F746
:1016500014C0B13091F00E94F10BB1E008950C94E8
:10166000F10B672F782F8827B85F39F0B93FCCF39B
:10167000869577956795B395D9F73EF490958095C3
:10168000709561957F4F8F4F9F4F0895E89409C0E3
:1016900097FB3EF490958095709561957F4F8F4FA5
:1016A0009F4F9923A9F0F92F96E9BB279395F695BB
:1016B000879577956795B795F111F8CFFAF4BB0F39
:1016C00011F460FF1BC06F5F7F4F8F4F9F4F16C09D
:1016D000882311F096E911C0772321F09EE8872F27
:1016E000762F05C0662371F096E8862F70E060E0E3
:1016F0002AF09A95660F771F881FDAF7880F96955C
:10170000879597F90895990F0008550FAA0BE0E8FF
:10171000FEEF16161706E807F907C0F012161306B3
:10172000E407F50798F0621B730B840B950B39F4F3
:101730000A2661F0232B242B252B21F408950A2659
:1017400009F4A140A6958FEF811D811D089597F999
:101750009F6780E870E060E008959FEF80EC089557
:1017600000240A9416161706180609060895002480
:101770000A9412161306140605060895092E0394FA
:10178000000C11F4882352F0BB0F40F4BF2B11F46E
:1017900060FF04C06F5F7F4F8F4F9F4F089557FDCD
:1017A0009058440F551F59F05F3F71F04795880FCF
:1017B00097FB991F61F09F3F79F087950895121666
:1017C00013061406551FF2CF4695F1DF08C0161612
:1017D00017061806991FF1CF8695710561050894C3
:1017E0000895E894BB2766277727CB0197F90895DA
:1017F0000E94830B08F48FEF08950E94100C0C9444
:10180000BE0B0E94B00B38F00E94B70B20F095235E
:1018100011F00C94A70B0C94AD0B11240C94F20B4B
:101820000E94CF0B70F3959FC1F3950F50E0551FA9
:10183000629FF001729FBB27F00DB11D639FAA2725
:10184000F00DB11DAA1F649F6627B00DA11D661F74
:10185000829F2227B00DA11D621F739FB00DA11D95
:10186000621F839FA00D611D221F749F3327A00D4F
:10187000611D231F849F600D211D822F762F6A2FEB
:1018800011249F5750409AF0F1F088234AF0EE0F50
:10189000FF1FBB1F661F771F881F91505040A9F77D
:1018A0009E3F510580F00C94A70B0C94F20B5F3F08
:1018B000E4F3983ED4F3869577956795B795F795B9
:1018C000E7959F5FC1F7FE2B880F911D9695879531
:1018D00097F90895FC01918D228D892F90E0805C0D
:1018E0009F4F821B91098F7399270895FC01918D59
:1018F000828D981731F0828DE80FF11D858D90E073
:1019000008958FEF9FEF0895FC01918D828D9817B8
:1019100061F0828DDF01A80FB11D5D968C91928DD3
:101920009F5F9F73928F90E008958FEF9FEF0895D0
:101930008DEE9DE0892B49F080E090E0892B29F025
:101940000E94ED0D81110C9400000895FC01848D1E
:10195000DF01A80FB11DA35ABF4F2C91848D90E0D9
:1019600001968F739927848FA689B7892C93A089B4
:10197000B1898C9180648C93938D848D981306C06B
:101980000288F389E02D80818F7D80830895CF9335
:10199000DF93EC01888D8823C9F0EA89FB89808177
:1019A00085FD05C0A889B9898C9186FD0FC00FB649
:1019B00007FCF5CF808185FFF2CFA889B9898C918A
:1019C00085FFEDCFCE010E94A60CE7CFDF91CF912E
:1019D0000895EF92FF920F931F93CF93DF93EC0143
:1019E00081E0888F9B8D8C8D981305C0E889F989DB
:1019F000808185FD24C0F62E0B8D10E00F5F1F4FF8
:101A00000F731127E02E8C8DE8120CC00FB607FC67
:101A1000FACFE889F989808185FFF5CFCE010E9450
:101A2000A60CF1CF8B8DFE01E80FF11DE35AFF4F9D
:101A3000F0820B8FEA89FB898081806207C0EE8982
:101A4000FF896083E889F98980818064808381E0EF
:101A500090E0DF91CF911F910F91FF90EF9008954B
:101A6000CF92DF92EF92FF921F93CF93DF93EC011F
:101A70006A017B01122FE889F98982E08083411590
:101A8000514E61057105B1F060E079E08DE390E0C1
:101A9000A70196010E941611DA01C9010197A10957
:101AA000B109B695A79597958795AC01411580E149
:101AB0005807A8F0E889F989108260E874E88EE197
:101AC00090E0A70196010E941611BA01A9014150A8
:101AD0005109610971097695679557954795EC8588
:101AE000FD855083EE85FF854083188EEC89FD8946
:101AF0001083EA89FB89808180618083EA89FB8980
:101B0000808188608083EA89FB8980818068808306
:101B1000EA89FB8980818F7D8083DF91CF911F913E
:101B2000FF90EF90DF90CF9008951F920F920FB625
:101B30000F9211242F938F939F93EF93FF93E09134
:101B40005C02F0915D028081E0916202F09163029B
:101B500082FD12C09081809165028F5F8F7320910A
:101B60006602821751F0E0916502F0E0E45BFD4F00
:101B7000958F8093650201C08081FF91EF919F91C5
:101B80008F912F910F900FBE0F901F9018951F925D
:101B90000F920FB60F9211242F933F934F935F93A1
:101BA0006F937F938F939F93AF93BF93EF93FF9325
:101BB0008CE492E00E94A60CFF91EF91BF91AF914F
:101BC0009F918F917F916F915F914F913F912F9155
:101BD0000F900FBE0F901F9018958CE492E00E941A
:101BE0006A0C21E0892B09F420E0822F0895ECE4AF
:101BF000F2E01382128288EE93E0A0E0B0E08483EA
:101C00009583A683B78385E891E09183808385ECF3
:101C100090E09587848784EC90E09787868780ECB6
:101C200090E0918B808B81EC90E0938B828B82ECA7
:101C300090E0958B848B86EC90E0978B868B118E51
:101C4000128E138E148E089508950E94D5100E944E
:101C5000240E0E94B005C8E9DCE00E94BF0920976D
:101C6000E1F30E94980CF9CFCF92DF92EF92FF92AE
:101C70000F931F93CF93DF936C017A018B01C0E028
:101C8000D0E0CE15DF0589F0D8016D918D01D60128
:101C9000ED91FC910190F081E02DC6010995892B11
:101CA00011F47E0102C02196ECCFC701DF91CF91E4
:101CB0001F910F91FF90EF90DF90CF9008956115E5
:101CC000710579F0FB0101900020E9F73197AF0130
:101CD000461B570BDC01ED91FC910280F381E02D56
:101CE000099480E090E008950C945F0EDC01ED9182
:101CF000FC910190F081E02D099461E971E00C9470
:101D00005F0E0F931F93CF93DF93EC010E945F0E42
:101D10008C01CE010E947D0E800F911FDF91CF912B
:101D20001F910F9108958F929F92AF92BF92CF9281
:101D3000DF92EF92FF920F931F93CF93DF93CDB774
:101D4000DEB7A1970FB6F894DEBF0FBECDBF7C0102
:101D5000D42EC52EDB0119A2223008F42AE08E0110
:101D60000F5D1F4F822E912CA12CB12C6D2D7C2D3F
:101D7000CD01A50194010E941611D22EC32EDA01C5
:101D8000015011096A3071058105910510F4605DFB
:101D900001C0695CF8016083232B242B252B31F7CC
:101DA000B801C7010E945F0EA1960FB6F894DEBF7E
:101DB0000FBECDBFDF91CF911F910F91FF90EF909C
:101DC000DF90CF90BF90AF909F908F900895CF926B
:101DD000DF92EF92FF920F931F93CF93DF93EC016B
:101DE0006A017B012115310579F4E881F9810190BF
:101DF000F081E02D642FDF91CF911F910F91FF9023
:101E0000EF90DF90CF9009942A303105E9F477FF05
:101E10001AC06DE20E94760E8C0144275527BA0144
:101E20004C195D096E097F092AE0CE010E94930ECC
:101E3000800F911FDF91CF911F910F91FF90EF9035
:101E4000DF90CF9008952AE0B701A601CE01DF917F
:101E5000CF911F910F91FF90EF90DF90CF900C9456
:101E6000930E4F925F926F927F928F929F92AF925A
:101E7000BF92CF92DF92EF92FF92CF93DF93EC016C
:101E80006A017B01B22E9A01AB01C701B6010E9423
:101E90001111882319F064E971E027C02601370188
:101EA000E89477F82FEF3FEF4FE75FE7C301B20108
:101EB0000E94111181110DC02FEF3FEF4FE75FE737
:101EC000C301B2010E94990A18161CF468E971E076
:101ED0000CC02FEF3FEF4FE75FE4C701B6010E9450
:101EE000F80B18169CF46CE971E0CE01DF91CF91EC
:101EF000FF90EF90DF90CF90BF90AF909F908F902A
:101F00007F906F905F904F900C945F0E2FEF3FEF9C
:101F10004FE75FECC701B6010E94990A87FDE3CF46
:101F200020E030E0A901C701B6010E94990A87FFAD
:101F30000AC06DE2CE010E94760E4C01F7FAF094D1
:101F4000F7F8F09402C0812C912CA12C60E070E095
:101F500080E09FE3AB1441F020E030E040E251E448
:101F60000E949E0AA394F6CF9B01AC01C701B60163
:101F70000E942D0A2B013C010E94170B6B017C0172
:101F80000E94460B9B01AC01C301B2010E942C0AC6
:101F90002B013C012AE0B701A601CE010E94930E5D
:101FA0007C01E80CF91CBB2039F060EA71E0CE013D
:101FB0000E945F0EE80EF91EDB2CDD2039F120E0D7
:101FC00030E040E251E4C301B2010E94FD0B2B015D
:101FD0003C010E94100B4B01770FAA08BB082AE0B6
:101FE00030E0B501A401CE010E94E70EE80EF91E13
:101FF000C501B4010E94480B9B01AC01C301B201B1
:102000000E942C0A2B013C01DA94D7CFC701DF9143
:10201000CF91FF90EF90DF90CF90BF90AF909F90C7
:102020008F907F906F905F904F9008950C94310F38
:102030000F931F93CF93DF93EC010E94310F8C011C
:10204000CE010E947D0E800F911FDF91CF911F91D5
:102050000F9108951F920F920FB60F9211242F9394
:102060003F938F939F93AF93BF938091EA02909198
:10207000EB02A091EC02B091ED023091E90223E075
:10208000230F2D3720F40196A11DB11D05C026E8B0
:10209000230F0296A11DB11D2093E9028093EA024D
:1020A0009093EB02A093EC02B093ED028091EE02CC
:1020B0009091EF02A091F002B091F1020196A11D62
:1020C000B11D8093EE029093EF02A093F002B093C3
:1020D000F102BF91AF919F918F913F912F910F90FE
:1020E0000FBE0F901F9018953FB7F8948091EE02A5
:1020F0009091EF02A091F002B091F10226B5A89B59
:1021000005C02F3F19F00196A11DB11D3FBFBA2F89
:10211000A92F982F8827820F911DA11DB11DBC01E9
:10212000CD0142E0660F771F881F991F4A95D1F7AE
:1021300008958F929F92AF92BF92CF92DF92EF92CB
:10214000FF926B017C010E9474104B015C01C11471
:10215000D104E104F10401F10E9410110E947410F5
:10216000DC01CB0188199909AA09BB09883E934073
:10217000A105B10560F321E0C21AD108E108F10818
:1021800088EE880E83E0981EA11CB11CC114D104F6
:10219000E104F10419F7DBCFFF90EF90DF90CF90CF
:1021A000BF90AF909F908F900895789484B582608F
:1021B00084BD84B5816084BD85B5826085BD85B5EB
:1021C000816085BDEEE6F0E0808181608083E1E89A
:1021D000F0E01082808182608083808181608083D2
:1021E000E0E8F0E0808181608083E1EBF0E08081D5
:1021F00084608083E0EBF0E0808181608083EAE7A7
:10220000F0E080818460808380818260808380812F
:10221000816080838081806880831092C1000895EE
:1022200008950E94830B880B990B0895A1E21A2E42
:10223000AA1BBB1BFD010DC0AA1FBB1FEE1FFF1F6A
:10224000A217B307E407F50720F0A21BB30BE40BBA
:10225000F50B661F771F881F991F1A9469F7609501
:102260007095809590959B01AC01BD01CF010895BB
:10227000EE0FFF1F0590F491E02D09946627772754
:102280000C947311FC0188279927E894219120323E
:10229000E9F3293010F02E30C8F32B3241F02D3203
:1022A00039F4689404C00E946B11820F911D219132
:1022B00020532A30C0F31EF4909581959F4F0895C6
:1022C000FC018191861721F08823D9F79927089579
:1022D0003197CF0108957AE0979F902D879F802DA9
:1022E000910D11240895A0E0B0E0E9E7F1E10C942C
:1022F0000313EC017B016115710519F0DB018D936E
:102300009C938E010F5F1F4F7880872D90E00E9475
:10231000D012892B11F0E801F4CFBDE27B1205C089
:102320000F5F1F4F7980C1E008C0EBE27E1204C04E
:102330008E010E5F1F4F7980C0E06801F1E0CF1A77
:10234000D10843E050E060E770E0C6010E94D91276
:10235000892BF1F4680122E0C20ED11C45E050E067
:102360006BE670E0C6010E94D912892B21F4680146
:1023700087E0C80ED11CE114F10419F0D701CD9209
:10238000DC92C111FFC060E070E080E89FE703C10C
:1023900043E050E068E670E0C6010E94D912892B44
:1023A00051F4E114F10409F4F2C00E5F1F4FF7017C
:1023B00011830083ECC0680160E070E0CB0100E0B5
:1023C00010E0F601D0EDD70DDA3058F52C2F226051
:1023D000622E2C2F2870C2FF05C0211128C00F5F6C
:1023E0001F4F25C0222311F001501109A5E0B0E0D4
:1023F0009B01AC010E94F4124B015C01880C991CFA
:10240000AA1CBB1CC501B4016D0F711D811D911D5E
:102410006839A9E97A078A07A9E19A0740F0C660F6
:1024200005C0DE3F51F4C3FD44C0C8606C2EBFEF51
:10243000CB1ADB0A7080C62DC4CF2D2F2F7D2531FE
:10244000C1F540814D3211F4C06106C04B3221F01C
:10245000319621E030E006C03296D60111964C91BB
:1024600022E030E0A0EDA40FAA3018F0E21BF30B3D
:1024700020C040E050E04038BCE05B075CF49A01CB
:10248000220F331F220F331F420F531F440F551FBC
:102490004A0F511D3196DF0111972C91A0EDA20F2B
:1024A000AA3048F3C4FF03C0519541955109040F68
:1024B000151FC1FF07C0E114F10421F03197D701C6
:1024C000ED93FC930E94460BC370C33019F06B016F
:1024D0007C0106C06B017C01F7FAF094F7F8F094E8
:1024E00020E030E0A901C701B6010E94990A8823C3
:1024F00009F445C017FF06C0119501951109C7E8F9
:10250000D0E002C0CFE9D0E05E01B8E1AB1AB1087B
:102510004601BE2DAF2D90E2E92EF12C0E151F05C0
:1025200084F0FE012591359145915491B4018B2F92
:102530009A2F0E94FD0B4B01B82FA92F0E191F09CE
:10254000EDCF2497F594E794CA15DB0539F76401BC
:10255000EB2EFA2E8E2D880F8F2D881F8F3F49F07E
:1025600020E030E0A901C701B6010E94990A81115B
:1025700006C082E290E09093F3028093F202C701DA
:10258000B60109C060E070E080E89FEF04C060E041
:1025900070E080EC9FE7CDB7DEB7EEE00C941F1340
:1025A00091110C94F112803219F089508550C8F7BE
:1025B0000895FB01DC014150504088F08D91813439
:1025C0001CF08B350CF4805E659161341CF06B352A
:1025D0000CF4605E861B611171F3990B0895881BE2
:1025E000FCCF9927882708950E943613A59F900D48
:1025F000B49F900DA49F800D911D112408952F92DA
:102600003F924F925F926F927F928F929F92AF9282
:10261000BF92CF92DF92EF92FF920F931F93CF93CF
:10262000DF93CDB7DEB7CA1BDB0B0FB6F894DEBF66
:102630000FBECDBF09942A88398848885F846E848C
:102640007D848C849B84AA84B984C884DF80EE80D6
:10265000FD800C811B81AA81B981CE0FD11D0FB6DF
:10266000F894DEBF0FBECDBFED010895A29FB0016B
:10267000B39FC001A39F700D811D1124911DB29FB6
:0E268000700D811D1124911D0895F894FFCF57
:10268E004772626C20302E3863205B272427206629
:10269E006F722068656C705D004162736F6C75744B
:1026AE006520706F736974696F6E203A2058203DF3
:1026BE00200020202D202059203D20006F6E006F1D
:1026CE00666600436F6D6D616E64206E6F7420726E
:1026DE0065636F676E697A6564203A204D00692BD9
:1026EE002B006F6B004552524F52202D206C696E9D
:1026FE0065427566666572206F766572666C6F7779
:10270E000000000000E90C340E6A0C840C760CC735
:10271E000C0D0A006E616E00696E66006F766600C3
:02272E002E007B
:00000001FF
